:100000000C9462000C948A000C948A000C948A0070
:100010000C948A000C948A000C948A000C948A0038
:100020000C948A000C948A000C948A000C948A0028
:100030000C948A000C948A000C948A000C948A0018
:100040000C94C3020C948A000C9489020C944E0206
:100050000C948A000C948A000C948A000C948A00F8
:100060000C948A000C948A000000000023002600F3
:10007000290000000000240027002A0000000000E2
:10008000250028002B0004040404040404040202D4
:100090000202020203030303030301020408102007
:1000A0004080010204081020010204081020000012
:1000B0000007000201000003040600000000000029
:1000C00000000D0311241FBECFEFD8E0DEBFCDBF6F
:1000D00011E0A0E0B1E0E0EDF1E102C005900D9289
:1000E000A434B107D9F722E0A4E4B1E001C01D9225
:1000F000A030B207E1F710E0C2E6D0E004C02197DB
:10010000FE010E94E008C136D107C9F70E946003D2
:100110000C943D050C94000080E480937C00809159
:100120007A00806480937A0080917A0086FDFCCF0B
:10013000809178002091790090E0922B08950F93A0
:100140001F93CF93DF93FC01A685B7858D01005CDB
:100150001F4FE8018881998101968F739927AD011E
:100160004E5B5F4FEA012881398128173907D1F3A7
:10017000E80128813981A20FB31F6C93A685B7854A
:10018000A05CBF4F11969C938E93A689B7892C9142
:1001900081E090E0078C02C0880F991F0A94E2F773
:1001A000822B8C9381E081A30488F589E02D8081E6
:1001B0008064808381E090E0DF91CF911F910F9167
:1001C0000895FC0181A1882329F0A489B5898C9127
:1001D00086FFFBCF11A20895FC01A485B585FD0122
:1001E000E05CFF4F20813181329680819181281718
:1001F000390779F080819181A80FB91F8C912081F6
:1002000031812F5F3F4F2F7333273183208390E05D
:1002100008958FEF9FEF0895DC011C96ED91FC91FE
:100220001D97DF01A05CBF4F2D913C911197129655
:100230008D919C9111972817390739F08D919C91D8
:10024000E80FF91F808190E008958FEF9FEF0895E8
:10025000FC0124853585F901E05CFF4F80819181A7
:10026000329620813181821B930B8F7399270895D9
:100270000895CF92DF92EF92FF920F931F93CF9347
:10028000DF936C01EB017B01E40EF51E00E010E052
:10029000CE15DF0561F06991D601ED91FC910190D9
:1002A000F081E02DC6010995080F191FF1CFC80193
:1002B000DF91CF911F910F91FF90EF90DF90CF9042
:1002C0000895833081F028F4813099F08230A1F0D4
:1002D00008958630A9F08730B9F08430D1F4809148
:1002E00080008F7D03C0809180008F778093800095
:1002F000089584B58F7702C084B58F7D84BD08953D
:100300008091B0008F7703C08091B0008F7D809383
:10031000B00008951F93CF93DF93282F30E0F901A9
:10032000E255FF4F8491F901E656FF4FD491F90150
:10033000EA57FF4FC491CC23C1F0162F81110E94C0
:100340006101EC2FF0E0EE0FFF1FE458FF4FA59185
:10035000B4919FB7F894111104C08C91D095D82313
:1003600002C0EC91DE2BDC939FBFDF91CF911F91F8
:100370000895CF93DF9390E0FC01E656FF4F249160
:10038000FC01EA57FF4F8491882361F190E0880FC8
:10039000991FFC01EE58FF4FC591D491FC01E45820
:1003A000FF4FA591B491611109C09FB7F89488815E
:1003B000209582238883EC912E230BC0623061F458
:1003C0009FB7F8948881322F309583238883EC91EE
:1003D0002E2B2C939FBF06C08FB7F894E8812E2B4D
:1003E00028838FBFDF91CF9108953FB7F894809114
:1003F0004A0190914B01A0914C01B0914D0126B55D
:10040000A89B05C02F3F19F00196A11DB11D3FBF4C
:10041000BA2FA92F982F8827820F911DA11DB11DDA
:10042000BC01CD0142E0660F771F881F991F4A95D6
:10043000D1F70895CF92DF92EF92FF92CF93DF939F
:100440000E94F501EB018AE0C82ED12CE12CF12CA1
:100450000E94F5016C1B7D0B683E7340C8F381E080
:10046000C81AD108E108F108C851DC4FC114D10401
:10047000E104F10469F7DF91CF91FF90EF90DF90F5
:10048000CF9008952FB7F89460914601709147017D
:1004900080914801909149012FBF08951F920F92BA
:1004A0000FB60F9211242F933F938F939F93EF9347
:1004B000FF9320918E0130918F0180919001909156
:1004C00091012817390731F48091C1008F7D809305
:1004D000C10014C0E0919001F0919101E25BFE4FE8
:1004E0002081809190019091910101968F739927BD
:1004F00090939101809390012093C600FF91EF911A
:100500009F918F913F912F910F900FBE0F901F9051
:1005100018951F920F920FB60F9211242F934F939D
:100520005F938F939F93EF93FF938091C00082FD21
:100530001CC02091C6008091D2019091D3014091BE
:10054000D4015091D50101968F7399274817590707
:1005500071F0E091D201F091D301EE56FE4F20836D
:100560009093D3018093D20102C08091C600FF9185
:10057000EF919F918F915F914F912F910F900FBEAF
:100580000F901F9018951F920F920FB60F92112483
:100590002F933F938F939F93AF93BF938091460187
:1005A00090914701A0914801B091490130914501D6
:1005B00023E0230F2D3720F40196A11DB11D05C0A6
:1005C00026E8230F0296A11DB11D209345018093BB
:1005D000460190934701A0934801B093490180914F
:1005E0004A0190914B01A0914C01B0914D010196AF
:1005F000A11DB11D80934A0190934B01A0934C0122
:10060000B0934D01BF91AF919F918F913F912F91E9
:100610000F900FBE0F901F901895E6EDF1E013823A
:10062000128288EE93E0A0E0B0E084839583A683F5
:10063000B78384E091E09183808382E991E095879C
:1006400084878EE491E09787868785EC90E0918B94
:10065000808B84EC90E0938B828B80EC90E0958B88
:10066000848B81EC90E0978B868B82EC90E0918F6D
:10067000808F86EC90E0938F828F84E0848F83E07C
:10068000858F87E0868F85E0878F81E080A30E9439
:1006900042020E9471056093FC017093FD018093FA
:1006A000FE019093FF010E9442020E947105609337
:1006B000F8017093F9018093FA019093FB0108957A
:1006C000CF93DF93CDB7DEB7E4970FB6F894DEBFD4
:1006D0000FBECDBF789484B5826084BD84B581603F
:1006E00084BD85B5826085BD85B5816085BD8091FD
:1006F0006E00816080936E00109281008091810075
:10070000826080938100809181008160809381006C
:10071000809180008160809380008091B10084602E
:100720008093B1008091B00081608093B00080918F
:100730007A00846080937A0080917A00826080934E
:100740007A0080917A00816080937A0080917A00AB
:10075000806880937A001092C100E091EA01F091E4
:10076000EB0181E090E09C010090F60102C0220FB5
:10077000331F0A94E2F72083E091E601F091E7014C
:100780001082E091E801F091E90120E120831092CC
:10079000F701E091EC01F091ED0140819C010090A6
:1007A000F20102C0220F331F0A94E2F7242B2083A8
:1007B000E091EC01F091ED0140819C010090F3018A
:1007C00002C0220F331F0A94E2F7242B2083E0910A
:1007D000EC01F091ED0140819C010090F40102C018
:1007E000220F331F0A94E2F7242B2083E091EC01BF
:1007F000F091ED0120810090F50102C0880F991F52
:100800000A94E2F780958223808361E086E00E946B
:10081000B90161E087E00E94B90160E08EE00E94CA
:10082000B90161E082E00E94B90128EE422E23E086
:10083000522E612C712C3CE3832E912CA12CB12CD7
:100840000E9442020E9471052091FC013091FD013D
:100850004091FE015091FF010E94AE0587FD3CC012
:1008600080914401882321F1E0EBF0E08491ECE9F0
:10087000F0E00491E8E8F0E014911123A1F0811177
:100880000E946101E12FF0E0EE0FFF1FE859FF4FDA
:10089000A591B4918C91082391E080E009F490E057
:1008A000692F782F02C060E070E0F1E06F2701C08F
:1008B00060E082E00E948A010E9442026C507E4FFA
:1008C0008F4F9F4F0E9471056093FC017093FD0153
:1008D0008093FE019093FF010E9442020E947105E5
:1008E0002091F8013091F9014091FA015091FB01FA
:1008F0000E94AE0587FDA4CF61E086E00E948A01D8
:1009000060E087E00E948A010E941A020E948C0027
:100910008C010E941A0260E086E00E948A0161E078
:1009200087E00E948A010E941A020E948C007C01CA
:1009300060E086E00E948A0160E087E00E948A0110
:100940000E191F0901501C4F17FF02C00F5F1F4FE8
:100950001801359427940E9442026B017C0188ECB7
:100960002816310454F081E080934401C701B60198
:100970006053784F8F4F9F4F08C010924401C701BA
:10098000B60160587141894C9F4F0E947305609376
:10099000F8017093F9018093FA019093FB01C7016C
:1009A000B601A30192010E948A089F938F937F93BF
:1009B0006F93CA01B901A50194010E948A089F930F
:1009C0008F937F936F93C701B60120E63AEE40E024
:1009D00050E00E946808CA01B901A50194010E9473
:1009E00068089F938F937F936F93C701B60120E8A8
:1009F0003EEE46E350E00E946808CA01B90128E1D2
:100A000030E040E050E00E9468089F938F937F930E
:100A10006F9380E191E09F938F938E010F5F1F4F43
:100A20001F930F930E944F057E0198E2E90EF11C7F
:100A30004DE050E0B801C7010E9440053F922F925F
:100A4000FF92EF9288E291E09F938F931F930F9311
:100A50000E944F05F80101900020E9F73197AF019E
:100A6000401B510BB80186ED91E00E9439010FB691
:100A7000F894DEBF0FBECDBFE3CEF8940C94E60829
:100A8000FB01DC014150504048F001900D920020E4
:100A9000C9F701C01D9241505040E0F70895AEE003
:100AA000B0E0E5E5F5E00C94B7080D891E8986E015
:100AB0008C831A8309838FEF9FE79E838D83AE011A
:100AC000475E5F4F6F89788DCE0101960E94B30516
:100AD000EF81F885E00FF11F10822E96E4E00C9470
:100AE000D308E89409C097FB3EF4909580957095E3
:100AF00061957F4F8F4F9F4F9923A9F0F92F96E96A
:100B0000BB279395F695879577956795B795F111DE
:100B1000F8CFFAF4BB0F11F460FF1BC06F5F7F4F7B
:100B20008F4F9F4F16C0882311F096E911C077238D
:100B300021F09EE8872F762F05C0662371F096E896
:100B4000862F70E060E02AF09A95660F771F881F65
:100B5000DAF7880F9695879597F908950E944408CB
:100B600008F48FEF0895ABE0B0E0E9EBF5E00C940A
:100B7000A9086C017B018A01FC011782168283811E
:100B800081FFCCC1CE0101963C01F6019381F701B2
:100B900093FD859193FF81917F01882309F4BAC168
:100BA000853239F493FD859193FF81917F018532E0
:100BB00029F4B60190E00E94AA07E7CF912C212CDE
:100BC000312CFFE1F315D8F08B3279F038F4803214
:100BD00079F08332A1F4232D20611DC08D3261F0A4
:100BE000803369F4232D216016C0832D8260382E56
:100BF000E32DE4603E2E2AC0F32DF8601DC037FCC3
:100C00002DC020ED280F2A3040F08E32B9F436FC8A
:100C100081C1232D2064322E19C036FE06C08AE021
:100C2000989E200D1124922E11C0EAE02E9E200DD8
:100C30001124222EF32DF0623F2E08C08C3621F4B1
:100C4000832D8068382E02C0883641F4F70193FD69
:100C5000859193FF81917F018111B3CF982F9F7D63
:100C60009554933028F40C5F1F4F9FE399830DC078
:100C7000833631F0833771F0833509F059C021C0D4
:100C8000F801808189830E5F1F4F88248394912C03
:100C9000530113C02801F2E04F0E511CF801A0804F
:100CA000B18036FE03C0692D70E002C06FEF7FEFA8
:100CB000C5010E949F074C018201F32DFF773F2E53
:100CC00016C0280122E0420E511CF801A080B1801C
:100CD00036FE03C0692D70E002C06FEF7FEFC501E3
:100CE0000E9494074C01F32DF0683F2E820133FCE3
:100CF0001BC0822D90E088169906B0F4B60180E200
:100D000090E00E94AA072A94F4CFF50137FC859160
:100D100037FE81915F01B60190E00E94AA07211081
:100D20002A9421E0821A91088114910471F7E8C095
:100D3000843611F0893641F5F80137FE07C060812D
:100D40007181828193810C5F1F4F08C06081718126
:100D5000072E000C880B990B0E5F1F4FF32DFF76AB
:100D60003F2E97FF09C090958095709561957F4FB4
:100D70008F4F9F4FF0683F2E2AE030E0A3010E9482
:100D8000E607882E861845C0853731F4232D2F7E3F
:100D9000B22E2AE030E025C0932D997FB92E8F36F0
:100DA000C1F018F4883579F0B5C0803719F088376C
:100DB00021F0B0C0E92FE061BE2EB4FE0DC0FB2DC6
:100DC000F460BF2E09C034FE0AC0292F2660B22E5F
:100DD00006C028E030E005C020E130E002C020E19C
:100DE00032E0F801B7FE07C0608171818281938192
:100DF0000C5F1F4F06C06081718180E090E00E5F44
:100E00001F4FA3010E94E607882E8618FB2DFF774F
:100E10003F2E36FE0DC0232D2E7FA22E891458F4AE
:100E200034FE0BC032FC09C0832D8E7EA82E05C077
:100E3000B82CA32C03C0B82C01C0B92CA4FE0FC041
:100E4000FE01E80DF11D8081803321F49A2D997EF9
:100E5000A92E09C0A2FE06C0B394B39404C08A2D83
:100E6000867809F0B394A3FC11C0A0FE06C0B214AA
:100E700088F4280C922C9B180EC0B21460F4B601B2
:100E800080E290E00E94AA07B394F7CFB21418F45E
:100E90002B1802C0982C212CA4FE10C0B60180E3B0
:100EA00090E00E94AA07A2FE17C0A1FC03C088E739
:100EB00090E002C088E590E0B6010CC08A2D8678EB
:100EC00059F0A1FE02C08BE201C080E2A7FC8DE2D6
:100ED000B60190E00E94AA07891438F4B60180E3B5
:100EE00090E00E94AA079A94F7CF8A94F301E80D44
:100EF000F11D8081B60190E00E94AA078110F5CF14
:100F0000222009F442CEB60180E290E00E94AA07B6
:100F10002A94F6CFF6018681978102C08FEF9FEF6A
:100F20002B96E2E10C94C508FC01059061507040DD
:100F30000110D8F7809590958E0F9F1F0895FC01A2
:100F40006150704001900110D8F7809590958E0FF8
:100F50009F1F08950F931F93CF93DF93FB0123816E
:100F600021FD03C08FEF9FEF2CC022FF16C04681EA
:100F70005781248135814217530744F4A081B18100
:100F80009D012F5F3F4F318320838C9326813781D2
:100F90002F5F3F4F3783268314C08B01EC01FB0189
:100FA0000084F185E02D0995892BE1F6D80116968C
:100FB0008D919C911797019617969C938E931697F7
:100FC000CE01DF91CF911F910F910895FA01AA27C9
:100FD000283051F1203181F1E8946F936E7F6E5F7C
:100FE0007F4F8F4F9F4FAF4FB1E03ED0B4E03CD02A
:100FF000670F781F891F9A1FA11D680F791F8A1F0D
:10100000911DA11D6A0F711D811D911DA11D20D073
:1010100009F468943F912AE0269F11243019305D2D
:101020003193DEF6CF010895462F4770405D41931E
:10103000B3E00FD0C9F7F6CF462F4F70405D4A336B
:1010400018F0495D31FD4052419302D0A9F7EACF33
:10105000B4E0A6959795879577956795BA95C9F762
:1010600000976105710508959B01AC010A2E069455
:101070005795479537952795BA95C9F7620F731F0E
:10108000841F951FA01D0895990F0008550FAA0BE6
:10109000E0E8FEEF16161706E807F907C0F012168B
:1010A0001306E407F50798F0621B730B840B950B8E
:1010B00039F40A2661F0232B242B252B21F40895E3
:1010C0000A2609F4A140A6958FEF811D811D089580
:1010D000A1E21A2EAA1BBB1BFD010DC0AA1FBB1F3C
:1010E000EE1FFF1FA217B307E407F50720F0A21BAE
:1010F000B30BE40BF50B661F771F881F991F1A941B
:1011000069F760957095809590959B01AC01BD0144
:10111000CF010895052E97FB1EF400940E94A108AC
:1011200057FD07D00E94680807FC03D04EF40C94CA
:10113000A10850954095309521953F4F4F4F5F4FF7
:10114000089590958095709561957F4F8F4F9F4F33
:1011500008952F923F924F925F926F927F928F925B
:101160009F92AF92BF92CF92DF92EF92FF920F9336
:101170001F93CF93DF93CDB7DEB7CA1BDB0B0FB640
:10118000F894DEBF0FBECDBF09942A8839884888FD
:101190005F846E847D848C849B84AA84B984C88493
:1011A000DF80EE80FD800C811B81AA81B981CE0F8A
:1011B000D11D0FB6F894DEBF0FBECDBFED0108956F
:1011C000EE0FFF1F0590F491E02D0994F894FFCFE6
:1011D000000000009F0039012801EC000C01E10033
:1011E0002530326C643A2530326C643A2530326CEA
:1011F000642E2530336C64002573202D204D6F69DB
:101200007374757265206C6576656C206973202532
:04121000640A00006C
:00000001FF
